:100000000C94C0000C947A030C94DD000C94DD0079
:100010000C94DD000C94DD000C94DD000C94DD00EC
:100020000C94DD000C94DD000C94DD000C94DD00DC
:100030000C94DD000C94DD000C94DD000C94DD00CC
:100040000C94FF010C94DD000C94DD000C94DD0099
:100050000C94DD000C94DD000C94DD000C94DD00AC
:100060000C94DD000C94DD0005010906A101850159
:10007000050719E029E7150025017501950881029A
:10008000950175082565190029658100C005010BDA
:1000900002000100A1010B01000100A10085020581
:1000A000091B010009002B0300090015002501753B
:1000B000019503810275059501810305010B30004F
:1000C00001000B310001001581257F750895028123
:1000D00006C0C005010904A10105010901A10085AF
:1000E0000305010932150026FF03750A95018102F7
:1000F00005090901150025017501950181027501A8
:1001000095058103C0C009022200010100800A098F
:100110000400000103000000092101010001229EEA
:1001200000070581030800141201100100000008F7
:10013000C016820400010102000128035000720071
:100140006100630074006900630075006D002000A9
:10015000480049004400200043006F006D00620029
:100160006F001A036300700065002E006B007500BD
:100170002E00610063002E0074006800040309046F
:1001800011241FBECFEFD4E0DEBFCDBF11E0A0E051
:10019000B1E0E2EBF9E002C005900D92A230B107A8
:1001A000D9F721E0A2E0B1E001C01D92A535B20768
:1001B000E1F70E949B040C94D7040C94000080E0AB
:1001C0000895E8E1F1E08283618363E0CF010C945C
:1001D0002602E4E1F1E082836383418364E0CF019E
:1001E0000C9426020F931F93CF93DF93EC01888129
:1001F0009981892B81F43399FECF60E086E00E94DB
:10020000E1000E94EF016093060170930701809363
:100210000801909309018BE091E0998388830E9403
:10022000EF01009106011091070120910801309122
:100230000901DC01CB01801B910BA20BB30B0A97C8
:10024000A105B10538F060E080E00E94E10033993B
:10025000FECFD1CF80E0DF91CF911F910F91089514
:100260000F931F93CF93DF93EC01E881F9813097CF
:1002700009F00994539A0E94EF0160930201709370
:100280000301809304019093050185E491E0998333
:1002900088830E94EF0100910201109103012091D7
:1002A000040130910501DC01CB01801B910BA20BF5
:1002B000B30B843F9140A105B10530F15B9A0E94D8
:1002C000EF01609302017093030180930401909306
:1002D000050189E691E0998388830E94EF010091EE
:1002E0000201109103012091040130910501DC010C
:1002F000CB01801B910BA20BB30B843F9140A10556
:10030000B10510F05B98B7CF80E0DF91CF911F91DE
:100310000F910895CF93DF932CE831E0FC013183F6
:10032000208320912A0124FF09C0EC0182E191E0A1
:100330000E94F2001982188283E001C080E0DF9100
:10034000CF91089587B1876087B987B1877E87B9D4
:1003500088B1887E88B9439A089548B121E030E099
:10036000662349F0B90102C0660F771F8A95E2F74C
:10037000CB01842B09C0B90102C0660F771F8A9593
:10038000E2F7CB018095842388B9089598B1987FCE
:1003900098B998B18770982B98B908958F70806438
:1003A00080937C0087EC80937A0080917A0086FDB0
:1003B000FCCF209178008091790090E0982F8827D9
:1003C000820F911D089584E00C94CE0114BC83E04B
:1003D00085BD81E080936E0086E086BD08952FB7CD
:1003E000F89480910A0190910B01A0910C01B091B9
:1003F0000D012FBFBC01CD018827992708951F92B9
:100400000F920FB60F9211248F939F93AF93BF93C8
:1004100080910A0190910B01A0910C01B0910D0106
:100420000196A11DB11D80930A0190930B01A09329
:100430000C01B0930D0186E086BDBF91AF919F91F5
:100440008F910F900FBE0F901F901895CF93C62FCE
:1004500020912A0124FF07C030912B0128E823278F
:1004600020932B0103C02AE520932A01DC01ECE252
:10047000F1E09C2F9E0F8D918193892F8E1B181672
:10048000D4F36C2F8CE291E00E947603CC5FC09392
:100490002A01CF910895CF93DF9380913B01835040
:1004A00087FDA9C090913801209137012D3209F0C4
:1004B000A0C0883009F09DC0CCE0D0E0C91BD109B4
:1004C000C15CDE4F83EC80931F018AE580930101BC
:1004D00010920E018881807621F0CE010E94DF000B
:1004E0007FC09A81109228018981811106C01092E3
:1004F000290128E231E082E06FC0853019F4909341
:100500003C0167C0863009F04EC08B81813041F4D8
:1005100088E291E090933A018093390182E13FC0F3
:10052000823041F486E091E090933A018093390162
:1005300082E235C08330F1F4911108C08CE791E07C
:1005400090933A018093390184E029C0913041F4BD
:1005500082E691E090933A01809339018AE11FC0CD
:100560009230E1F48AE391E090933A01809339016B
:1005700088E215C0813241F488E191E090933A011C
:100580008093390189E00BC0823241F488E690E023
:1005900090933A01809339018EE901C080E090E4A4
:1005A00090930E011DC0883069F0893019F4909342
:1005B0003E010FC08A3049F08B3059F48BE48093B0
:1005C0002B0107C02EE331E002C028E231E081E0D8
:1005D00003C028E231E080E030933A0120933901F2
:1005E0009F81911104C09E81981708F4892F8093F0
:1005F000000110923B018091010184FF48C080916D
:1006000000018F3F09F443C0C82F893008F0C8E0CB
:100610008C1B8093000190911F0188E889278093AB
:100620001F01CC2339F18091390190913A01209139
:100630000E0126FF0BC0A0E2B1E0FC012C2F280F19
:1006400034913D9331962E13FBCF09C0DC01E0E2DB
:10065000F1E02C2F2E0F3D9131932E13FCCF2FEF75
:100660002C0F30E02F5F3F4F820F931F90933A0182
:10067000809339016C2F80E291E00E947603CC5F79
:10068000CC3019F08FEF80930001C093010184E119
:1006900099B1947131F48150D9F710923C011092C4
:1006A0003601DF91CF910895E9E6F0E08081826024
:1006B0008083E89AEAE2F1E08BE481838AE5808333
:1006C0000895A82FB92F80E090E041E050EA6095AE
:1006D00030E009C02D9182279795879510F08427E7
:1006E0009527305EC8F36F5FA8F30895EADF8D9316
:1006F0009D930895CF93CFB7CF93DF93C3954C9B32
:10070000E9F74C9B0BC04C9B09C04C9B07C04C9B12
:1007100005C04C9B03C04C9B01C08BC06F93C09124
:100720003801DD27C15CDE4F2F9365E54C9B03C08C
:100730002F916F91E6CF0F931F934F9320E040E1ED
:100740005F9309B1047104FB27F93F9350E03BE04C
:1007500039C0147140642F77012F5F5F1EC040685D
:1007600019B114712F7752501FC0406409B12F770F
:100770000471D1F15F5F00C023C0406219B12F77CF
:10078000147191F15F5F00C025C0047110275150B2
:1007900012F45D5F0000115027952C3F19B1C8F687
:1007A00014710127015027952C3FC8F64227499321
:1007B00009B1047110274F73115027952C3FA8F6EB
:1007C0004695469519B1147179F001270150279586
:1007D0002C3F98F66B5A60F3315009B1B0F600C067
:1007E00011E01CBB002719C03B503195C31BD04002
:1007F00011E01CBB0881033C09F10B34F9F0209196
:1008000036011981110F1213EDCF4A81441F0936A9
:1008100051F10D3211F0013E29F700933D013F9156
:100820005F914F911F910F912F916F91CCB3C0FDAC
:1008300065CFDF91CF91CFBFCF91189520913D012A
:10084000222369F310913B01112391F5343092F189
:1008500030933B0120933701109138013BE0311B6D
:100860003093380127C000913B0101300CF50AE5B7
:100870004F7049F43091010134FD1DC00093010116
:10088000CFE1D1E01CC030912A0134FD14C00093A7
:100890002A01CBE2D1E013C0052710E000C0000020
:1008A0000BB91AC0052710E0221F1DC010E021C09F
:1008B0004AE502C032ED432FC4E1D0E032E01AB184
:1008C00014615C9A0BB11AB954E120E865E320FF8A
:1008D00005270BB9279517951C3FF0F66695B8F7D5
:1008E000B1F720FF05270BB9279517951C3FD0F6C8
:1008F0002795179517FF052700001C3F0BB9B0F689
:1009000029913A9519F70B7E10913C01110FC651B0
:10091000D0400BB911F01093360111E01CBB0061FF
:100920001AB11B7E402F4B7E54E05A95F1F70BB95C
:100930001AB94BB974CF0E94A2010E94E6010E942D
:100940005403549A2FEF85EA9EE021508040904056
:10095000E1F700C00000549881E0809318011092E4
:10096000190110921A0182E080931401109216016D
:10097000109217011092150183E080930F011092DD
:100980001001809111018C7F8B7F80931101109257
:100990001C0110921B011092130110921201789405
:1009A0000E944B028BE191E00E948A01F9CFF894FA
:0209B000FFCF77
:0209B200FF5AEA
:00000001FF
