:100000000C94C0000C94CA020C94DD000C94DD002A
:100010000C94DD000C94DD000C94DD000C94DD00EC
:100020000C94DD000C94DD000C94DD000C94DD00DC
:100030000C94DD000C94DD000C94DD000C94DD00CC
:100040000C944F010C94DD000C94DD000C94DD0049
:100050000C94DD000C94DD000C94DD000C94DD00AC
:100060000C94DD000C94DD0005010906A101850159
:10007000050719E029E7150025017501950881029A
:10008000950175082565190029658100C005010BDA
:1000900002000100A1010B01000100A10085020581
:1000A000091B010009002B0300090015002501753B
:1000B000019503810275059501810305010B30004F
:1000C00001000B310001001581257F750895028123
:1000D00006C0C005010904A10105010901A10085AF
:1000E0000305010932150026FF03750A95018102F7
:1000F00005090901150025017501950181027501A8
:1001000095058103C0C009022200010100800A098F
:100110000400000103000000092101010001229EEA
:1001200000070581030800141201100100000008F7
:10013000C016820400010102000128035000720071
:100140006100630074006900630075006D002000A9
:10015000480049004400200043006F006D00620029
:100160006F001A036300700065002E006B007500BD
:100170002E00610063002E0074006800040309046F
:1001800011241FBECFEFD4E0DEBFCDBF11E0A0E051
:10019000B1E0EEE6F8E002C005900D92A230B107A2
:1001A000D9F721E0A2E0B1E001C01D92A335B2076A
:1001B000E1F70E94EB030C9435040C94000080E0FE
:1001C0000895E0E1F1E08283618363E0CF010C9464
:1001D0007601ECE0F1E082836383418364E0CF0148
:1001E0000C94760187B1876087B987B1877E87B91C
:1001F00088B1887E88B9439A089548B121E030E0FB
:10020000662349F0B90102C0660F771F8A95E2F7AD
:10021000CB01842B09C0B90102C0660F771F8A95F4
:10022000E2F7CB018095842388B9089598B1987F2F
:1002300098B998B18770982B98B908958F70806499
:1002400080937C0087EC80937A0080917A0086FD11
:10025000FCCF209178008091790090E0982F88273A
:10026000820F911D089584E00C941E0114BC83E05C
:1002700085BD81E080936E0086E086BD08952FB72E
:10028000F8948091020190910301A0910401B09132
:1002900005012FBFBC01CD018827992708951F9222
:1002A0000F920FB60F9211248F939F93AF93BF932A
:1002B0008091020190910301A0910401B091050188
:1002C0000196A11DB11D8093020190930301A0939B
:1002D0000401B093050186E086BDBF91AF919F9167
:1002E0008F910F900FBE0F901F901895CF93C62F30
:1002F0002091280124FF07C03091290128E82327F5
:100300002093290103C02AE520932801DC01EAE2B9
:10031000F1E09C2F9E0F8D918193892F8E1B1816D3
:10032000D4F36C2F8AE291E00E94C602CC5FC093A6
:100330002801CF910895CF93DF93809139018350A5
:1003400087FDA9C090913601209135012D3209F029
:10035000A0C0883009F09DC0CCE0D0E0C91BD10915
:10036000C35CDE4F83EC80931D018AE5809301011D
:10037000109206018881807621F0CE010E94DF0074
:100380007FC09A81109226018981811106C0109246
:10039000270126E231E082E06FC0853019F49093A6
:1003A0003A0167C0863009F04EC08B81813041F43C
:1003B00088E291E0909338018093370182E13FC059
:1003C000823041F486E091E09093380180933701C8
:1003D00082E235C08330F1F4911108C08CE791E0DE
:1003E000909338018093370184E029C0913041F423
:1003F00082E691E090933801809337018AE11FC033
:100400009230E1F48AE391E09093380180933701D0
:1004100088E215C0813241F488E191E0909338017F
:100420008093370189E00BC0823241F488E690E086
:1004300090933801809337018EE901C080E090E409
:10044000909306011DC0883069F0893019F49093AB
:100450003C010FC08A3049F08B3059F48BE4809313
:10046000290107C02CE331E002C026E231E081E03F
:1004700003C026E231E080E0309338012093370159
:100480009F81911104C09E81981708F4892F809351
:100490000001109239018091010184FF48C08091D0
:1004A00000018F3F09F443C0C82F893008F0C8E02D
:1004B0008C1B8093000190911D0188E8892780930F
:1004C0001D01CC2339F180913701909138012091A1
:1004D000060126FF0BC0AEE1B1E0FC012C2F280F76
:1004E00034913D9331962E13FBCF09C0DC01EEE130
:1004F000F1E02C2F2E0F3D9131932E13FCCF2FEFD7
:100500002C0F30E02F5F3F4F820F931F90933801E5
:10051000809337016C2F8EE191E00E94C602CC5F80
:10052000CC3019F08FEF80930001C093010184E17A
:1005300099B1947131F48150D9F710923A01109227
:100540003401DF91CF910895E9E6F0E08081826087
:100550008083E89AE8E2F1E08BE481838AE5808396
:100560000895A82FB92F80E090E041E050EA60950F
:1005700030E009C02D9182279795879510F0842748
:100580009527305EC8F36F5FA8F30895EADF8D9377
:100590009D930895CF93CFB7CF93DF93C3954C9B93
:1005A000E9F74C9B0BC04C9B09C04C9B07C04C9B74
:1005B00005C04C9B03C04C9B01C08BC06F93C09186
:1005C0003601DD27C35CDE4F2F9365E54C9B03C0EE
:1005D0002F916F91E6CF0F931F934F9320E040E14F
:1005E0005F9309B1047104FB27F93F9350E03BE0AE
:1005F00039C0147140642F77012F5F5F1EC04068BF
:1006000019B114712F7752501FC0406409B12F7770
:100610000471D1F15F5F00C023C0406219B12F7730
:10062000147191F15F5F00C025C004711027515013
:1006300012F45D5F0000115027952C3F19B1C8F6E8
:1006400014710127015027952C3FC8F64227499382
:1006500009B1047110274F73115027952C3FA8F64C
:100660004695469519B1147179F0012701502795E7
:100670002C3F98F66B5A60F3315009B1B0F600C0C8
:1006800011E01CBB002719C03B503195C31BD04063
:1006900011E01CBB0881033C09F10B34F9F02091F7
:1006A00034011981110F1213EDCF4A81441F09360D
:1006B00051F10D3211F0013E29F700933B013F91BA
:1006C0005F914F911F910F912F916F91CCB3C0FD0E
:1006D00065CFDF91CF91CFBFCF91189520913B018E
:1006E000222369F310913901112391F5343092F1ED
:1006F0003093390120933501109136013BE0311BD5
:100700003093360127C00091390101300CF50AE51C
:100710004F7049F43091010134FD1DC00093010177
:10072000CDE1D1E01CC03091280134FD14C000930C
:100730002801C9E2D1E013C0052710E000C0000085
:100740000BB91AC0052710E0221F1DC010E021C000
:100750004AE502C032ED432FC4E1D0E032E01AB1E5
:1007600014615C9A0BB11AB954E120E865E320FFEB
:1007700005270BB9279517951C3FF0F66695B8F736
:10078000B1F720FF05270BB9279517951C3FD0F629
:100790002795179517FF052700001C3F0BB9B0F6EA
:1007A00029913A9519F70B7E10913A01110FC65114
:1007B000D0400BB911F01093340111E01CBB006163
:1007C0001AB11B7E402F4B7E54E05A95F1F70BB9BE
:1007D0001AB94BB974CF0E94F2000E9436010E94F0
:1007E000A402549A2FEF85EA9EE021508040904069
:1007F000E1F700C00000549881E08093100110924E
:1008000011011092120182E080930C0110920E01EE
:1008100010920F0110920D0183E080930901109254
:100820000A0180910B018C7F8B7F80930B01789460
:100830000E949B0160E086E10E94E1002FEF81EEC3
:1008400094E0215080409040E1F700C0000060E05B
:1008500080E00E94E1002FEF81EE94E02150804083
:0E0860009040E1F700C00000E3CFF894FFCF16
:02086E00FF5A2F
:00000001FF
